:040000004AEF00F0D3
:100008002582FACF15F0FBCF16F0E9CF17F0EACF2B
:1000180018F0E1CF19F0E2CF1AF0D9CF1BF0DACF00
:100028001CF0F3CF1DF0F4CF1EF0F6CF1FF0F7CF82
:1000380020F0F8CF21F0F5CF22F0CD909E90234A02
:10004800242A094A0A2AFC0ECF6E170ECE6ECD80DE
:1000580022C0F5FF21C0F8FF20C0F7FF1FC0F6FF40
:100068001EC0F4FF1DC0F3FF1CC0DAFF1BC0D9FF80
:100078001AC0E2FF19C0E1FF18C0EAFF17C0E9FF84
:1000880016C0FBFF15C0FAFF259211009BEF00F088
:10009800700ED36EC00E9B6ED09ED59E000ED76E8E
:1000A800000ED66ED59CD59AD598D586F294F29A3C
:1000B800CD90300ECD6ECF68CE68CD809E909D805D
:1000C8009D90000E246E000E236E9D80F28EF28CA1
:1000D800C180C182C184C186806892688168000E2F
:1000E800936E8268910E946EAB9EAB98AC9AAC946A
:1000F800AC92CF0EAF6EB88CAB8EAB88AC84AC82B2
:10010800AC8A9D90000E246E000E236E9D802350B5
:100118002410D8B4FCD7000EABB4010E0E6E000E3E
:10012800ABB2010E0E6EAECF0EF04AEF00F001EE4C
:1001380000F0850EEE6AE806FDE100EE01F0140E0F
:10014800EE6AE806FDE125902592000EF86E0001A2
:040158004CEF00F078
:101DFE000000002110422063308440A550C660E7E9
:101E0E0070088129914AA16BB18CC1ADD1CEE1EFA1
:101E1E00F13112100273325222B5529442F772D639
:101E2E0062399318837BB35AA3BDD39CC3FFF3DEF1
:101E3E00E36224433420040114E664C774A4448589
:101E4E00546AA54BB528850995EEE5CFF5ACC58D41
:101E5E00D55336722611163006D776F6669556B4D9
:101E6E00465BB77AA719973887DFF7FEE79DD7BC91
:101E7E00C7C448E5588668A7784008611802282329
:101E8E0038CCC9EDD98EE9AFF9488969990AA92BE1
:101E9E00B9F55AD44AB77A966A711A500A333A1279
:101EAE002AFDDBDCCBBFFB9EEB799B588B3BBB1A31
:101EBE00ABA66C877CE44CC55C222C033C600C41C9
:101ECE001CAEED8FFDECCDCDDD2AAD0BBD688D4981
:101EDE009D977EB66ED55EF44E133E322E511E7019
:101EEE000E9FFFBEEFDDDFFCCF1BBF3AAF599F78D1
:101EFE008F8891A981CAB1EBA10CD12DC14EF16F82
:101F0E00E18010A100C230E32004502540467067E6
:101F1E0060B9839893FBA3DAB33DC31CD37FE35E12
:101F2E00F3B1029012F322D2323542145277625636
:101F3E0072EAB5CBA5A89589856EF54FE52CD50D22
:101F4E00C5E234C324A01481046674476424540586
:101F5E0044DBA7FAB79987B8975FE77EF71DC73CB2
:101F6E00D7D326F2369106B01657667676154634D6
:101F7E00564CD96DC90EF92FE9C899E9898AB9ABC2
:101F8E00A94458654806782768C018E1088238A326
:101F9E00287DCB5CDB3FEB1EFBF98BD89BBBAB9A52
:101FAE00BB754A545A376A167AF10AD01AB32A9276
:101FBE003A2EFD0FED6CDD4DCDAABD8BADE89DC962
:101FCE008D267C076C645C454CA23C832CE01CC1C6
:101FDE000C1FEF3EFF5DCF7CDF9BAFBABFD98FF8F2
:101FEE009F176E367E554E745E932EB23ED10EF016
:021FFE001E00C3
:020000040020DA
:08000000FFFFFFFFFFFFFFFF00
:020000040030CA
:0E000000FF08161EFF0180FF00C003E0034052
:00000001FF
